:020000040800F2
:10000000B06D00207102000865220008C5200008BC
:100010008D2100084D0A0008472800080000000054
:10002000000000000000000000000000C101000806
:100030004F0A00080000000005020008872200089F
:100040008B0200088B0200088B0200088B0200085C
:100050008B0200088B0200088B0200088B0200084C
:100060008B020008090B00080F0B00088B02000828
:100070008B0200088B0200088B0200088B0200082C
:100080008B0200088B0200088B0200088B0200081C
:100090008B0200088B0200088B020008150B000879
:1000A0008B0200088B0200088B0200088B020008FC
:1000B0008B020008492300088B0200088B0200080D
:1000C0008B0200088B0200088B0200088B020008DC
:1000D0008B0200088B0200088B0200088B020008CC
:1000E000010B00088B0200088B0200088B0200083D
:1000F0008B0200088B0200088B0200088B020008AC
:100100008B0200088B0200088B0200088B0200089B
:100110008B0200088B0200088B0200088B0200088B
:100120008B0200088B0200088B0200088B0200087B
:100130008B0200088B0200088B0200088B0200086B
:100140008B0200088B0200088B0200088B0200085B
:100150008B0200088B0200088B0200088B0200084B
:100160008B0200088B0200088B0200088B0200083B
:100170008B0200088B0200088B02000800000000C0
:100180008B0200088B0200088B0200088B0200081B
:100190008B0200088B0200088B0200088B0200080B
:1001A0008B0200088B0200088B020008DFF80CD0DD
:1001B00000F094FA0048004735310008B06D002087
:1001C000234B19680868B0E8F04F80F309884FF0B6
:1001D000000080F3118870470000000003480068A9
:1001E000006880F3088862B600DF00BF08ED00E019
:1001F000DFF80C00016841F470010160704700BF36
:1002000088ED00E0EFF30980114B1A681EF0100F23
:1002100008BF20ED108A20E9F04F106008B44FF0BD
:10022000500080F3118803F0C5FD4FF0000080F30B
:10023000118808BC19680868B0E8F04F1EF0100F6C
:1002400008BFB0EC108A80F30988704700BF00BF78
:100250008C000020EFF311804FF0500181F31188E2
:10026000704780F311887047EFF3058070470000F6
:100270000648804706480047FEE7FEE7FEE7FEE740
:10028000FEE7FEE7FEE7FEE7FEE7FEE7F5220008F1
:10029000AD01000840EA01039B0703D009E008C94B
:1002A000121F08C0042AFAD203E011F8013B00F83B
:1002B000013B521EF9D27047D2B201E000F8012B87
:1002C000491EFBD270470022F6E710B513460A46D6
:1002D00004461946FFF7F0FF204610BD30B50B4627
:1002E000014600202022012409E021FA02F59D4266
:1002F00005D303FA02F5491B04FA02F52844151E3A
:10030000A2F10102F1DC30BD2DE9F05F05460020CD
:1003100092469B4688460646814640241BE0284676
:1003200041464746224600F0FAF953465A46C01A5B
:10033000914110D311461846224600F0E1F92D1ADA
:1003400067EB01084F4622460120002100F0D8F952
:1003500017EB00094E41201EA4F10104DFDC4846E2
:1003600031462A464346BDE8F09F2DE9FE4F8046C0
:1003700081EA0300C00F0C46009021F0004123F0F9
:100380000045B8EB0200A94105D2404621469046FF
:100390001C460B46024623F00040104347D0270D71
:1003A000C7F30A00C3F30A510290401A0190402893
:1003B0006BDAC3F3130040F4801B0098924620B11F
:1003C0000023D2EB030A63EB0B0B01985946C0F1F3
:1003D0004002504600F094F906460D4650465946F4
:1003E000019A00F0ACF910EB08006141002487EAA3
:1003F000115284EAE7731A4340D0009A62B3019A1B
:10040000012A4FEA075215DC001B61EB02014FF095
:10041000004202EA0752CDE90042001C41F580117A
:1004200032462B4600F0ACF903B0BDE8F08F4046F1
:100430002146F9E7001B61EB0201001C41F5801326
:1004400000185B412018A2F5001747EB030140EAB2
:10045000D570B6196D4111E06D084FEA360645EAD0
:10046000C0754FEA0752001B61EB0201001C41F509
:10047000801149084FEA30000019514132462B469D
:1004800003B0BDE8F04F00F06CB9009801224000C5
:100490000023D0EB020263EBE073009821464FEAA1
:1004A000E074B8EB000061EB0401E9E783F000437E
:1004B0005BE781F0004158E72DE9FE4F81EA030434
:1004C00004F0004421F0004100944FF0000B23F0B1
:1004D000004350EA01045ED052EA03045BD0C3F348
:1004E0000A54C1F30A552C44A4F2F3340194A0FB3E
:1004F0000254C1F3130141F48011C3F3130343F415
:10050000801301FB024400FB034E840A970A44EA6D
:10051000815447EA8357A4FB076802958D0A05FBBF
:1005200007854FEA932C04FB0C542705029D4FEAE4
:10053000065847EA1637B5EB08056EEB070C870E31
:10054000920E47EA811742EA8312A7FB0201B6EB3B
:100550000B0164EB00042B0D43EA0C335E1844EBF3
:100560001C50DA465146E7FB0201C5F313044FEA7B
:100570000B3343EA14534FEA0432019C43EA060367
:10058000A4F10C040294009CCDE900B400F0F8F84A
:1005900003B0BDE8F08F00200146F9E72DE9F04DEA
:1005A00081EA030404F0004B21F0004514464FF0AB
:1005B000000A23F0004150EA050220D054EA01026B
:1005C0001DD0C5F30A570246C5F31303C1F3130048
:1005D000C1F30A5640F4801543F48013A7EB0608D4
:1005E000101BD64608F2FD3873EB050002D308F164
:1005F000010801E092185B41B8F1000F03DA002016
:100600000146BDE8F08D00204FF480110646844677
:100610000EE0171B73EB050705D3121B63EB0503F5
:1006200006434CEA010C49084FEA300092185B413E
:1006300050EA0107EDD152EA030012D082EA040029
:1006400083EA0501084305D0101BAB4106D2012205
:10065000002306E000224FF0004302E06FF00102A9
:1006600053101AEB06004CEB085110EB0A0041EB5B
:100670000B01BDE8F04D00F074B8C1F30A52C1F3AC
:10068000130140F2FF3341F480119A4202DA002054
:100690000146704740F233439A42A2F2334202DCF1
:1006A000524200F03CB800F02BB8000030B5041EF8
:1006B00071F1000404DB4FF00044404264EB01019F
:1006C000141E73F1000405DB1C464FF00043524238
:1006D00063EB0403994208BF904230BD064C074DBE
:1006E00006E0E06840F0010394E807009847103402
:1006F000AC42F6D3FFF75EFDBC460008DC460008BE
:10070000202A04DB203A00FA02F1002070479140D1
:10071000C2F1200320FA03F3194390407047202AC6
:1007200004DB203A21FA02F00021704721FA02F39B
:10073000D040C2F120029140084319467047202A58
:1007400006DBCB17203A41FA02F043EAE07306E0F9
:1007500041FA02F3D040C2F1200291400843194609
:10076000704710B5141E73F1000408DA401C41F103
:10077000000192185B411A4301D120F0010010BD25
:100780002DE9F04D92469B4611B1B1FA81F202E09B
:10079000B0FA80F220329046FFF7B2FF04460F46CF
:1007A00040EA0A0041EA0B0153465A46084313D077
:1007B000114653EA010019D0C8F140025046FFF734
:1007C000AEFF05460E46504659464246FFF798FF93
:1007D000084305D0012004E020463946BDE8F08DED
:1007E0000020054346EAE0762C4337430A98630528
:1007F000E40AA0EB08000022FD0A44EA47540A304C
:1008000002D500200146E9E7010510196941DDE93B
:10081000084500196941BDE8F04DA2E7434910B50C
:10082000D1F8042322F44032C1F80423D1F8042380
:1008300043681A43C1F8042301684A6822F48072AD
:100840004A6001684A68036942EA03224A60016813
:100850004A6822F040724A6001684A6883681A4315
:100860004A6001688A6822F400628A6001688A68C6
:10087000C3681A438A6001688A6822F070628A60DD
:1008800001688A68036B1A438A6001688A6822F0EB
:1008900040528A6001688A68C36A1A438A600168A4
:1008A0008A6822F002028A6001688A68836942EAE3
:1008B00043028A60416A002901684A680FD042F405
:1008C00000624A6001684A6822F460424A60016836
:1008D0004A68174C836A04EB43331A4301E022F45D
:1008E00000624A600168CA6A22F47002CA62016842
:1008F000CA6A038C0F4C04EB03531A43CA620168A3
:100900008A6822F400728A6001688A68C36942EAD0
:1009100043228A6001688A6822F480628A600168E2
:100920008A68406942EA8020886010BD002001404A
:1009300000E0FFFF0000F0FF0948084901604FF4A4
:10094000E131416000218160C160016181610C2160
:1009500041610146002000F005B800000048004059
:10096000F800002070B504002E480D4686B00168DE
:1009700046D041F040010160016841F04001016052
:1009800028481430016841F0200101602648022601
:10099000694630F81400CDE900060120CDE90206D1
:1009A0002148083030F814000490204850F8240002
:1009B00000F09EFA1C486946001D30F81400CDE98D
:1009C000000619480C3030F814000490174808301D
:1009D00050F8240000F08CFAFCB1472000220521D9
:1009E00000F0D0FBDCB1472000F0C1FB0F48083815
:1009F00050F824002860284601F0CEFA06B070BDF9
:100A000041F002010160016841F002010160054806
:100A10001030016841F48021B7E72720DEE7272066
:100A2000E2E7000030380240944600080C00002045
:100A30000449054A31F8101052F82000002200F055
:100A40006EBB0000A44600081C000020FEE77047B3
:100A5000C82002F0F3FC18A001F0F6FE00261B4CA3
:100A60003A2501270A2002F0E9FC206AB0FBF5F1E3
:100A7000491E092914D2676313E000BFC4E90E764A
:100A800002E000BFC4E90E67B0FBF5F110A001F071
:100A9000DBFEE06AB0FBF5F111A001F0D5FEE1E765
:100AA0006663B0FBF5F112A001F0CEFEE16A606969
:100AB0008842E7D8E2E700000D0A204465746563C8
:100AC000745F6F62737461636C65000044000020A2
:100AD0000D0A207269676874203D202564000000BB
:100AE0000D0A206C656674203D202564000000001E
:100AF0000D0A20666F7277617264203D20256400C4
:100B00004FF4004000F0E8B9082000F0E5B91020EB
:100B100000F0E2B9202000F0DFB9000070B5164CFB
:100B200086B0206840F001002060144D00264FF48C
:100B300000408DE861006946114800F0D9F90022B3
:100B40000221282000F01EFB282000F010FB206866
:100B500040F00200206038208DE8610069460948B5
:100B600000F0C6F9002202210A2000F00BFB0A2047
:100B700000F0FDFA06B070BD3038024000001110E0
:100B8000000002400004024030B590F83C20012AE9
:100B900019D0012280F83C200A6807230468092A3A
:100BA00013D9E5680A3A02EB420293409D43E5609F
:100BB0000A788B680A3A02EB420293400268D468D2
:100BC0002343D36010E0022030BD256902EB4202CE
:100BD00093409D4325610A788B6802EB4202934063
:100BE00002681469234313614A681F23072A12D23B
:100BF0000468656B521E02EB820293409D4365635D
:100C00000A790B68521E02EB820293400268546B11
:100C10002343536325E004680D2A11D2256BD21FAC
:100C200002EB820293409D4325630B790A68DB1F28
:100C300003EB83039A4003681C6B22431A6310E0A2
:100C4000E56A0D3A02EB820293409D43E5620B791F
:100C50000A680D3B03EB83039A400368DC6A224376
:100C6000DA62104A0368934208D10B68122B05D14F
:100C7000D2F8043343F48003C2F804330368934288
:100C80000AD10968102901D0112905D1D2F804131D
:100C900041F40001C2F80413002180F83C1008461A
:100CA00030BD0000002001400068C06C704710B5E6
:100CB000040003D094F83D0010B104E0012010BD01
:100CC000204600F00FF8022084F83D002046FFF790
:100CD000A5FD00202064012184F83D1084F83C002B
:100CE00010BD00002DE9F0430646234D0068214960
:100CF000214C143D0327DFF8849085B04FF00008A5
:100D000088420ED1206840F480602060286840F05E
:100D10000400286002208DE881016946484600F001
:100D2000E7F81749306888420ED1206840F4007017
:100D30002060286840F00400286010208DE88101C0
:100D40006946484600F0D4F80E49306888420ED112
:100D5000206840F480702060286840F0040028601B
:100D600020208DE881016946484600F0C1F805B0B1
:100D7000BDE8F083002201404438024000080240F0
:100D8000002101400020014070B50D46044600F0EE
:100D9000CBF946190DE0681C0BD000F0C5F9B04244
:100DA00007D3032084F83D00002084F83C00032092
:100DB00070BD206800688007EDD594F83D002528B7
:100DC00004D0152084F83D00002070BD3520F9E7DF
:100DD00090F83C200021012A0FD0012280F83C200D
:100DE00090F83D20222A0AD05FF0120280F83D20C0
:100DF00002689368DB0704D00EE0022070473222BD
:100E0000F4E7936843F0010393604FF4077200BF67
:100E1000491C89B29142FAD90B4AD2F80413C90687
:100E200005D00168914209D1C26A1AB106E0C16ACF
:100E300021B901688A6842F080428A60002180F806
:100E40003C10084670470000002001402DE9F041A9
:100E500000271F4A03261F4C44F6206510281CD08B
:100E6000B0F5004F0FD10821104600F053F9207063
:100E700058B1012807D16088401C80B2608026707C
:100E8000A84200D16780BDE8F081608800B9658024
:100E90006088401E60802670F5E72021104600F033
:100EA00039F9607020B10128EDD1A08848B109E07E
:100EB000A088401C80B2A0806670A842E3D1A780C1
:100EC000E1E7A580A088401EA0806670DBE70000F7
:100ED0000004024044000020044910B50A680242A0
:100EE00002D00860FFF7B2FF10BD0000143C0140C3
:100EF0002DE9F04F0022DFF8E8E101254FF0030B68
:100F00004FF00F0A0B6805FA02F42340A3427DD18B
:100F10004E68022E01D0122E14D156070F694FEAE7
:100F2000D66C07FA0CF9D60800EB8606376A0AFA7F
:100F30000CF827EA08073762D6F820C04CEA090CFB
:100F4000C6F820C0D0F800C056000BFA06F72CEA0D
:100F5000070CC0F800C091F804C0D0F800800CF075
:100F6000030C0CFA06FC4CEA080CC0F800C0D1F8DF
:100F700004C0BCF1010F08D0BCF1020F05D0BCF1D8
:100F8000110F02D0BCF1120F1FD1D0F808C02CEA0B
:100F9000070CC0F808C0D1F80CC0D0F808800CFAD3
:100FA00006FC4CEA080CC0F808C0D0F804C02CEAD3
:100FB000040CC0F804C0D0F804C00C79C4F30014C9
:100FC00094404CEA040CC0F804C0C468BC43C4603C
:100FD0008C68B440C6683443C4604C68E40079D57A
:100FE000404C266846F4804626609407270F3E4C06
:100FF00022F0030C64440AFA07F6D4F808C82CEA75
:10100000060CC4F808C8394EB04200E062E001D1D5
:1010100000262DE0364EB04201D1012628E0354EA3
:10102000B04201D1022623E0334EB04201D1032663
:101030001EE0324EB04201D1042619E0304EB042DB
:1010400001D1052614E02F4EB04201D106260FE053
:101050002D4EB04201D107260AE02C4EB04201D1FC
:10106000082605E02A4EB04201D1092600E00A26F2
:10107000BE40D4F808783E43C4F80868DEF8006043
:1010800074469E43CEF80060154E361D37689F4368
:1010900037604F68FF0302D527681F4327604C68FD
:1010A000A40302D534681C4334600D4C0834266810
:1010B0009E432660261D37689F4337604F68FF02B6
:1010C00002D527681F4327604C68A40202D5346804
:1010D0001C433460521C102AFFF414AFBDE8F08F9B
:1010E000003C014044380240003001400000024012
:1010F0000004024000080240000C024000100240C0
:101100000014024000180240001C0240002002406F
:10111000002402400069084000D0012070470AB155
:1011200001837047418370470148006870470000A1
:10113000400000200C4810B5016841F400710160C6
:10114000016841F480610160016841F480710160CF
:101150004FF47A5000F068FB032000F033F800F001
:1011600005F8002010BD0000003C0240704700F070
:101170001F02012191404009800000F1E020C0F8E9
:1011800000117047F0B40E4B1B680C46C3F30223EA
:10119000C3F10705042D00D90425191D072901D223
:1011A000002300E0DB1E012606FA05F1491E21405E
:1011B00099409E40761E16403143F0BC01F053B872
:1011C0000CED00E0064900F0070208684FF6FF0347
:1011D000184040EA0220034A1043086070470000AC
:1011E0000CED00E00000FA052DE9F041134801681C
:1011F00041F080510160124F01263E64FFF794FFD9
:1012000000F57A750F4C03E0FFF78EFFA8420DD270
:101210006068C003F8D57E64FFF786FF00F57A7535
:1012200007E000BFFFF780FFA84202D30320BDE81C
:10123000F08160688003F5D50020F8E7403802406F
:1012400000000E42007000402DE9F047DFF8A09149
:1012500005460E46D9F80000664C00F00F016548BF
:10126000083406F0FF0841F28837B14243D289F8CA
:101270000080D9F8001001F00F01B14275D1297832
:10128000C90724D06968012913D00068022913D046
:101290008007002876DA206820F0030008432060E9
:1012A000FFF742FFC619686801280BD0022813D047
:1012B0001CE000688003ECE78001EAE7FFF734FFF9
:1012C000B0424FD22068C0F381000128F6D15BE024
:1012D000FFF72AFFB04245D22068C0F38100022800
:1012E000F6D151E0FFF720FFB0423BD2206810F06A
:1012F0000C0FF7D148E02978C9073BD0696801296C
:1013000013D00068022913D0800700283ADA206839
:1013100020F0030008432060FFF706FF07446868D9
:1013200001280BD0022813D020E000688003ECE7EE
:101330008001EAE7FFF7F8FEB84213D22068C0F355
:1013400081000128F6D115E0FFF7EEFEB84209D280
:101350002068C0F381000228F6D10BE0FFF7E4FE1D
:10136000B84203D30320BDE8F0870BE0206810F0FB
:101370000C0FF3D189F80080D9F8000000F00F00BD
:10138000B04201D00120EEE72878800705D520681B
:10139000A96820F0F000084320602878400705D5B0
:1013A0002068E96820F4E0500843206028780007AE
:1013B00006D52068296920F4604040EAC100206019
:1013C00000F01CF84FF47A71B0FBF1F0401EB0F160
:1013D000807F0AD24FF0E0214861074AF02082F86E
:1013E000140D00208861072008610020BBE7000081
:1013F000003C0240003802400FE000E000B500F081
:1014000043F808490968F02292FAA2F201F0F001CB
:10141000B2FA82F2D140044A515CC84003490860E4
:1014200000BD000008380240AC4600082C00002037
:1014300000B5FFF7E3FF074909684FF4E05292FA5D
:10144000A2F201F4E051B2FA82F2D140024A515CB8
:10145000C84000BD08380240AC46000800B5FFF7A0
:10146000CDFF074909684FF4604292FAA2F201F4F5
:101470006041B2FA82F2D140024A515CC84000BDDC
:1014800008380240AC46000830B51D48006810F02E
:101490000C011C481AD01C4C042916D0082915D15F
:1014A0001749091F0A6802F03F030A6802F4800521
:1014B0004FF4800292FAA2F2B2FA82F2D54047F6D5
:1014C000C07204D0B4FBF3F003E0204630BDB0FBA3
:1014D000F3F00B680968134092FAA2F2B2FA82F2B2
:1014E000D34058434FF4403292FAA2F201F4403113
:1014F000B2FA82F2D140491C4900B0FBF1F030BD94
:10150000083802400024F40040787D012DE9F84FAE
:1015100004460078DFF8FC92BF4DC0074FF000068C
:1015200049D0D9F800104846C1F38101012908D0FB
:101530000068C0F3810002280AD1281D006840021B
:1015400006D52868800336D56068012874D132E05A
:10155000DFF8C4A20AF1020A8AF80060FFF7E4FD8E
:1015600041F2883700EB070804E000BFFFF7DCFD1D
:1015700040457BD228688003F8D420798AF800009F
:101580006068012803D0FFF7CFFD074410E0FFF7A4
:10159000CBFD074404E000BFFFF7C6FDB842E8D228
:1015A00028688003F8D506E0FFF7BEFDB842E0D218
:1015B00028688003F8D42078984F80074FF0010BFB
:1015C00043D5D9F80010484611F00C0F09D0006837
:1015D000C0F3810002280BD18E48001F0068400232
:1015E00006D42868800730D5E0680128AED12CE009
:1015F000E068D8B1C7F800B0FFF796FD00F16408C5
:1016000004E000BFFFF790FD4045B2D22868800794
:10161000F8D52868F82292FAA2F22169B2FA82F289
:1016200020F0F8009140084328600EE03E60FFF78C
:101630007BFD00F1640805E0EAE000BFFFF774FD00
:10164000404513D228688007F8D42078000727D5B2
:10165000DFF8C0A1724861690AF16C0A89B1C0F86B
:1016600000B0FFF761FD00F1640805E07EE000BF17
:10167000FFF75AFD404579D2DAF800008007F7D528
:101680000EE00660FFF750FD00F1640804E000BFC3
:10169000FFF74AFD404569D2DAF800008007F7D429
:1016A0002078400752D55B483830016841F08051BE
:1016B0000160DFF870A1DAF8001041F48071CAF817
:1016C0000010FFF731FD00F1640803E0FFF72CFD87
:1016D00040454BD2DAF80000C005F7D5DFF8348179
:1016E00008F1680888F80060FFF71EFD41F2883AAB
:1016F0005044009005E000BFFFF716FD00998842B6
:101700007ED2D8F800008007F6D4207A88F800004E
:10171000A068012803D0FFF707FD824412E0FFF71D
:1017200003FD824404E000BFFFF7FEFC504567D292
:10173000D8F800008007F7D508E000BFFFF7F4FCF9
:1017400050455DD2D8F800008007F7D4A069E8B30F
:10175000D9F80010C1F38101022959D002283E6650
:1017600005D0FFF7E1FC00F164044CE048E0FFF72E
:10177000DBFC00F1640603E0FFF7D6FCB0423FD289
:1017800028688001F8D4D4E90710084347F6C072EE
:1017900092FAA2F2616AB2FA82F29140A26A4FF022
:1017A000FF3303EB52024FF4403393FAA3F3B3FA3F
:1017B00083F39A40114308434FF0706292FAA2F209
:1017C000E16AB2FA82F29140084300E01EE040F084
:1017D00000511048001F0160C7F860B0FFF7A4FC7B
:1017E00000F1640404E000BFFFF79EFCA04207D2B2
:1017F00028688001F8D509E0FFF796FCA04202D3E3
:101800000320BDE8F88F28688001F5D40020F8E7B0
:101810000120F6E708380240003802400000474245
:10182000800E47420070004010B5401EB0F1807F2E
:1018300001D3012010BD4FF0E02460610F2160173B
:1018400000F011FD0020A06107202061002010BDE4
:10185000704770472DE9F041064600684E498842BE
:1018600075D14D4D307E20354C4C4FF6FF774FF003
:10187000000802282CD12868800608D404213046AC
:1018800000F067FBE060286840F020001FE0286857
:1018900080067ED50421304600F05BFB2061E168C4
:1018A000884202D9A0EB010003E004D2A7EB0101BA
:1018B0000844606101E0C4F81480FFF7B9FD616974
:1018C0004000B0FBF1F02063286820F02000286081
:1018D000307E04282CD12868800508D408213046A1
:1018E00000F037FBA061286840F400701FE0286812
:1018F00080054ED50821304600F02BFBE061A16940
:10190000884202D9A0EB010003E004D2A7EB010159
:101910000844206201E0C4F82080FFF789FD216AB5
:101920004000B0FBF1F02063286820F400702860CC
:10193000307E08282DD12868800409D40C21304637
:1019400000F007FB6062286840F4005020E020E0CF
:10195000286880041DD50C21304600F0FAFAA062F8
:10196000616A884202D9A0EB010003E004D2A7EB30
:1019700001010844E06201E0C4F82C80FFF758FD43
:10198000E16A4000B0FBF1F02063286820F40050C9
:101990002860BDE8F0810000000400404400002001
:1019A0002DE9F041044690F838000D46012837D063
:1019B000012684F83860022084F839007AB3042ABA
:1019C00040D02068082A4FD0D5E90032E968076A7C
:1019D00027F480570762D0F81CC0076A2CF4407CBB
:1019E0004CEA022222F4704242EA013127F42042FA
:1019F00042EA0332C16102622068C16921F4406198
:101A0000C1612068C169AA6841EA0221C0F81C10BE
:101A100084F83960002084F83800BDE8F08101E0E6
:101A20000220FAE7D5E90012EB68206800F0B4FD67
:101A30002068816921F00C01816120688169AA68B0
:101A400011430FE0D5E90012EB68206800F0E4FDD7
:101A50002068816921F44061816120688169AA68F8
:101A600041EA02218161D3E7D5E9003CEA68016AD5
:101A700021F480710162C169076A21F0030141EA22
:101A80000C0121F0F00141EA021127F4206242EA40
:101A90000322C16102622068C16921F00C01C161A9
:101AA0002068C169AA681143B0E710B5040003D0EB
:101AB00094F8390010B104E0012010BD204600F078
:101AC0000DF8022084F83900211D206800F042FC46
:101AD000012084F83900002010BD0000154800B531
:101AE000016885B041F002010160124810380168B8
:101AF00041F002010160016841F001010160032031
:101B0000022100228DE80700CDE9030169460A4859
:101B1000FFF7EEF98020009069460848FFF7E8F9E2
:101B2000002205211D20FFF72DFB1D20FFF71FFBC5
:101B300005B000BD403802400004024000000240F1
:101B400010B50268044631B1042908D0082915D01F
:101B50000C2908D116E0D06840F0020002E0D068FD
:101B600040F00400D0600122206800F053FC20689F
:101B7000016841F001010160002010BDD06840F013
:101B80000800EFE7D06840F01000EBE770B50446BE
:101B9000006801694FF00005C943890717D4C1687F
:101BA000C943890713D4016921F0020101610120B1
:101BB0002076206880698007204602D0FFF74AFE21
:101BC00004E000F0A0F8204600F076F925762068C1
:101BD0000169C943490718D4C168C943490714D4E6
:101BE000016921F0040101610220207620688069EA
:101BF00010F4407F204602D0FFF72CFE04E000F0F6
:101C000082F8204600F058F9257620680169C9431A
:101C1000090717D4C168C943090713D4016921F022
:101C20000801016104202076206880698007204631
:101C300002D0FFF70FFE04E000F065F8204600F048
:101C40003BF9257620680169C943C90618D4C168E3
:101C5000C943C90614D4016921F0100101610820AB
:101C600020762068806910F4407F204602D0FFF77C
:101C7000F1FD04E000F047F8204600F01DF925765C
:101C800020680169C943C9070AD1C168C943C907A6
:101C900006D1016921F001010161204600F058F9E7
:101CA00020680169C94309060AD4C168C943090605
:101CB00006D4016921F0800101612046FFF7C8FDCB
:101CC00020680169C94349060AD4C168C943490665
:101CD00006D4016921F040010161204600F05BF962
:101CE00020680169C94389060CD4C168C9438906C3
:101CF00008D4016921F0200101612046BDE870404F
:101D0000FFF7A7BD70BD704770B5044690F8380066
:101D10000D4601280DD0012684F83860022084F891
:101D2000390042B1042A18D0082A2AD00C2A4DD1F1
:101D300039E0022070BD206800F078FB20688169DE
:101D400041F0080181612068816921F0040181610D
:101D5000206881692A69114311E0206800F092FB34
:101D60002068816941F4006181612068816921F402
:101D700080618161206881692A6941EA022181616B
:101D800024E0206800F0B0FB2068C16941F0080140
:101D9000C1612068C16921F00401C1612068C16985
:101DA0002A69114311E0206800F0CEFB2068C16968
:101DB00041F40061C1612068C16921F48061C161A1
:101DC0002068C1692A6941EA0221C16184F8396049
:101DD000002084F8380070BD10B5040003D094F8DA
:101DE000390010B104E0012010BD204600F00CF8CD
:101DF000022084F83900211D206800F0ABFA012090
:101E000084F83900002010BD30B52549234D046801
:101E1000234B14390220032285B0AC4210D11C6838
:101E200044F002041C600B6843F004030B60CDE92E
:101E300002020190C020009069460492194815E002
:101E4000194DAC4216D1164B1B1F1C6844F00404FC
:101E50001C600B6843F008030B60CDE9020201909F
:101E600004904FF44050009069461048FFF740F846
:101E700005B030BD0E4DAC42FAD11C6844F40034BC
:101E80001C600B6843F020030B604021CDE900107B
:101E9000CDE90202694607480492E7E700040140E1
:101EA000443802400008024000080040000C024094
:101EB00000440140001402407047000010B5044681
:101EC0000068012200F0A6FA08492068884202D082
:101ED0000749884203D1416C41F4004141642068C4
:101EE000016841F001010160002010BD00000140C7
:101EF0000004014010B504460068002200F08AFA90
:101F0000114841F2111221689310814202D00F480A
:101F1000814209D1086A104206D1086A184203D1E9
:101F2000486C20F4004048642068016A114206D1E0
:101F3000016A194203D1016821F001010160012009
:101F400084F83900002010BD000001400004014069
:101F5000704790F838300022012B0AD0012380F816
:101F6000383041B1042909D008290AD00C290DD1F3
:101F70000AE00220704701684A6B07E001688A6B3B
:101F800004E00168CA6B01E001680A6C002180F876
:101F9000381010467047704710B5040003D094F80D
:101FA000390010B104E0012010BD204600F022F8F5
:101FB000022084F839002068C16821F40051C16012
:101FC000204600F03FFB2068016921F49041016147
:101FD0002068416921F02A0141612068C16841F40B
:101FE0000051C160002084F83A00012084F83900D3
:101FF000002010BD704700002DE9F047044690F81E
:10200000390099460D46012801D0222858D12DB318
:1020100022B394F83800012852D0012684F83860A1
:10202000002784F83A7094F83900222819D0122039
:1020300084F83900A284E2844FF48058E08C4B4647
:10204000401EE084A0684FF0000240454FF0800140
:10205000204613D100F0B2FB08BB04E00120BDE82C
:10206000F0873220E4E728882168C0F30800486040
:10207000206908B16D1C08E0AD1C06E000F09EFB75
:1020800068B9216815F8010B4860E08C0028D5D1AB
:102090004B4600224021204600F090FB08B103206F
:1020A000DDE794F83900322806D084F8396000BFA3
:1020B00084F838700020D2E7222084F83900F7E74E
:1020C0000220CCE7FEE700004FF47A767500214C41
:1020D00064272148FEF77CFE1F48FEF7E5FD60649B
:1020E000FF211D48FEF750FE606CA84201D96564CF
:1020F00003E0606C642800D26764616C17A000F094
:10210000A3FB606CB04205D900F06CF801F05AFCFA
:1021100000F03EF810484430FEF75AFE0E484430B6
:10212000FEF7C2FD20640C48FF214430FEF72CFE70
:10213000206CA84201D9256403E0206C642800D2F9
:102140002764216C0BA000F07FFB0A2001F076F9D8
:10215000BFE7000044000020380300200D0A495268
:102160002073656E736F72204C656674203D202568
:10217000640000000D0A49522073656E736F72206F
:102180005269676874203D2025640000FEE7000066
:1021900010B500210448FFF791FE03480421BDE873
:1021A00010403C30FFF78ABEE401002010B5042146
:1021B0000448FFF783FE03480421BDE810403C308B
:1021C000FFF77CBEE401002010B500210448FFF7B2
:1021D00075FE03480021BDE810403C30FFF76EBE9D
:1021E000E401002010B500210948FFF783FE042117
:1021F0000748FFF77FFE064800213C30FFF77AFED4
:1022000003480421BDE810403C30FFF773BE0000D6
:10221000E4010020C82001F011F90CA000F014FB2B
:10222000FFF7B6FF0E4C606B012809D1FFF7DAFF0C
:10223000A06B012807D0E06B0128F4D101F0DAFB94
:10224000FFF7A6FFEFE701F0A5FBF9E70D0A204D28
:102250006F746F725F636F6E74726F6C000000005A
:102260004400002070470907090E002806DA00F034
:102270000F0000F1E02080F8141D704700F1E0200D
:1022800080F80014704701F005BE0000174810B533
:10229000016892B041F0805101601548016841F435
:1022A0004041016001200090019002248005CDE9A9
:1022B0000640192008904FF4B470CDE909040720B6
:1022C0000B906846FFF722F9FEF78EFF0F20CDE94D
:1022D0000C0400200E904FF4A0500F90E0021090DC
:1022E00005210CA8FEF7B0FF12B010BD4038024027
:1022F000007000401048016841F4700101600F480F
:10230000016841F0010101600C4A002108321160AE
:1023100002680B4B1A400260031D0A4A1A600268E9
:1023200022F48022026005480C3001600249580600
:10233000803908607047000088ED00E000380240F6
:10234000FFFFF6FE103000240148FFF71FBC00001D
:102350005C020020F0B50268234B244D244E254F2B
:10236000254C4FF0804C984209D0604507D0A842D8
:1023700005D0B04203D0B84201D0A04204D122F02F
:10238000700E4A6842EA0E0298421BD0604519D08E
:10239000A84217D0B04215D0B84213D0A04211D0F5
:1023A000164DA8420ED0164DA8420BD0154DA8428E
:1023B00008D0154DA84205D0144DA84202D0144DA6
:1023C000A84203D122F44075CA682A4302608A6891
:1023D000C2620A688262984201D0A04201D10969B2
:1023E000016301214161F0BD000001400004004093
:1023F00000080040000C0040000401400040014083
:10240000004401400048014000180040001C00400A
:102410000020004010B50123046A8B409C430462F5
:10242000036A8A401343036210BD000030B5026A9C
:1024300022F001020262026A436884690D6824F096
:102440007304254322F002048A6822430B4CA04205
:1024500002D00B4CA0420BD122F00804CA6823F42E
:10246000407322434C6922F004021C438B692343CE
:102470004360856149684163026230BD00000140EC
:102480000004014030B5026A22F010020262026AC2
:10249000436884690D6824F4E64444EA05248D68A1
:1024A00022F0200242EA05120D4DA84202D00D4D45
:1024B000A8420ED1CD6822F0800242EA05124D6991
:1024C00023F4406343EA85038D6922F0400243EA26
:1024D00085034360846149688163026230BD000006
:1024E000000001400004014030B5026A22F480720D
:1024F0000262036A4268C46923F4007324F073051E
:102500000C682C438D6843EA05230D4DA84202D088
:102510000C4DA8420ED1CD6823F4006343EA052395
:102520004D6922F4405242EA05128D6923F480631A
:1025300042EA05124260C4614968C163036230BD6A
:10254000000001400004014030B5026A22F48052CC
:102550000262046A4268C3690D6823F4E64343EAF1
:1025600005238D6824F4005444EA0534084DA8423C
:1025700002D0084DA84204D14D6922F4804242EABB
:1025800085124260C36149680164046230BD000085
:10259000000001400004014070B5046A24F0010409
:1025A00004628469056A154EB04214D0B0F1804FC0
:1025B00011D0134EB0420ED0124EB0420BD0124E7C
:1025C000B04208D0114EB04205D0114EB04202D0F8
:1025D000104EB04203D124F00304144303E024F06E
:1025E000030242F0010424F0F00242EA031325F052
:1025F0000A020A438361026270BD000000000140CC
:102600000004004000080040000C004000040140AD
:10261000004001400018004030B5046A24F0100466
:1026200004628569046A25F4407545EA022222F4B1
:10263000704242EA033224F0A00343EA01118261AE
:10264000016230BD2DE9F04101680446086920F4BB
:102650004052E068104308612268D06849F20C617A
:1026600088432369A168E569194363692B431943CA
:102670000143D1602168486920F44072A069104389
:102680004861E26964263225B2F5004F49494A485B
:1026900022681DD0824201D08A426AD1FEF7DEFE56
:1026A00000EBC00101EB00106168B0468900B0FB8F
:1026B000F1F1B1FBF8F6FEF7D1FE00EBC00101EB42
:1026C000001061688900B0FBF1F7FEF7C7FE69E012
:1026D000824201D08A4219D1FEF7C0FE00EBC00150
:1026E00001EB00106168B0464900B0FBF1F1B1FBAD
:1026F000F8F6FEF7B3FE00EBC00101EB00106168D5
:102700004900B0FBF1F7FEF7A9FE18E0FEF790FED6
:1027100000EBC00101EB00106168B0464900B0FB5E
:10272000F1F1B1FBF8F6FEF783FE00EBC00101EB1F
:10273000001061684900B0FBF1F7FEF779FE00EB8D
:10274000C00101EB001061685FEA4101B0FBF1F1EB
:10275000B1FBF8F06FF01801484307EB800005EB80
:102760000011B1FBF8F0216866F31F108860BDE826
:10277000F081FEF75DFE00EBC00101EB0010616827
:10278000B0468900B0FBF1F1B1FBF8F6FEF750FE60
:1027900000EBC00101EB001061688900B0FBF1F7AC
:1027A000FEF746FE00EBC00101EB001061688900F6
:1027B000CCE7000000140140001001402DE9F04773
:1027C0001D4690460E460446FEF7AEFC47195FEAEA
:1027D00008004FF000094FF0010806D02CE0681CFB
:1027E00003D0FEF7A1FCB8420BD22068006836EA9D
:1027F0000000F4D125E0681C1ED0FEF795FCB8421D
:102800001AD32068C16821F08001C1602068C168C6
:1028100021F02001C1602068C16821F48071C1608D
:102820002068416921F00101416184F8398084F810
:1028300038900320BDE8F0872068006836EA000081
:10284000D9D00020F6E7FEE70FB4054B10B503A979
:10285000044A029800F0CAF810BC5DF814FB0000AE
:102860001D310008F400002002E008C8121F08C152
:10287000002AFAD170477047002001E001C1121F01
:10288000002AFBD1704700002DE9FF5FDDE902203F
:10289000010DDDF838B0024318D044F61050A1F213
:1028A000FF3141430D140F98012820D0A5EB0B00F8
:1028B000401C5FEA000A4FF00004474EDFF81C910D
:1028C000A046504616D5CAF1000728E00F9801240B
:1028D00043A2012808D0002100980F9BC0E90021E5
:1028E000C0E90243BDE8FF9F6FEA0B01F4E7CBF1BB
:1028F0000000DEE7074612E0F80707D0224633461D
:1029000040464946FDF7D8FD804689462246334673
:1029100010461946FDF7D0FD04460E467F10002FE5
:10292000EAD1DDE90201BAF1000F42464B4602DA74
:10293000FDF7C2FD01E0FDF731FE04460E46002220
:10294000284BFDF7B3FE03D84FF0FF30014607E0F8
:102950000022254B20463146FDF707FDFDF78DFE91
:10296000102409E0002C0ADB0A220023FDF7CCFC2E
:10297000019B30321A55641E50EA0102F2D1641CE8
:10298000019AC4F1110314440F9A012A03D00122C1
:1029900008430DD10AE0084304D000204FF0110B8A
:1029A0000F9080E7A3EB0B056D1E0DE05B4504DD8A
:1029B0004FF0000205F1010504E003DA4FF00002D8
:1029C000A5F10105002AECD000980F99C0E9023169
:1029D000C0E9004586E70000000024400000F03F09
:1029E000300000000000F0430000E03F2DE9FF4F01
:1029F00095B09B468946064600250FE2252877D1EB
:102A000000242746F84A0121059400E0044316F803
:102A1000013F203B01FA03F01042F7D130782A2819
:102A200011D06FF02F033078A0F13002092A16D8A8
:102A3000059A44F0020402EB820203EB42021044C6
:102A4000761C0590EFE759F8042B0592002A03DA6B
:102A5000504244F40054059044F00204761C30784F
:102A60002E2816D116F8010F44F004042A280DD0A0
:102A70006FF02F023078A0F13003092B09D807EB53
:102A8000870302EB4303C718761CF3E759F8047B6E
:102A9000761C30786C280FD006DC4C2817D06828BC
:102AA0000DD06A2814D104E0742810D07A280FD1F0
:102AB0000DE044F400140AE044F4801401E044F40E
:102AC00040147278824202D104F58014761C761C80
:102AD000307866280BD013DC582877D009DC002822
:102AE00075D04528F6D04628F4D047281AD19DE164
:102AF00018E0632835D0642879D0652812D195E193
:102B0000702873D008DC6728F1D069286FD06E2850
:102B10000DD06F2806D1B5E073282CD0752875D05C
:102B2000782874D05A46179990476D1C75E1C4F304
:102B30000250022809D003280DD0D9F8001004282B
:102B40000DD00D6009F1040967E1D9F80010EA170A
:102B5000C1E90052F6E7D9F800100D80F2E70D70D8
:102B6000F0E719F8041B8DF8001000208DF8010023
:102B7000EA46012003E059F804AB4FF0FF3061074B
:102B80004FF0000102D40DE008F101018846B9427E
:102B90000FDA8045F8DB1AF808100029F4D108E0B4
:102BA00008F1010188468142FADB1AF80810002971
:102BB000F6D105985B46A0EB080721463846179AE0
:102BC00000F094FA284400EB080507E04DE029E105
:102BD0000DE01AF8010B5A4617999047B8F1010811
:102BE000F7D25B4621463846179A13E142E00A22A3
:102BF0000092C4F302524FF0000A022A08D059F89A
:102C000004CB032A4FEAEC710AD00DE029E02AE058
:102C100009F1070121F00702F2E802C1914609E03B
:102C20000FFA8CFC4FEAEC71042A03D14FFA8CFCAA
:102C30004FEAEC71002907DA0A460021DCF1000CAA
:102C400061EB02012D2202E0220504D52B228DF832
:102C50000420012203E0E20701D02022F7E790469A
:102C600059E00A2102E010220DE010214FF0000A85
:102C700000910BE010224FF0000A44F004040827F2
:102C8000009203E008224FF0000A0092C4F30252BF
:102C9000022A05D059F804CB0021032A08D009E004
:102CA00009F1070121F00702F2E802C1914605E0AF
:102CB0001FFA8CFC042A01D10CF0FF0C4FF0000825
:102CC000220728D5702806D0009B83F0100353EA12
:102CD0000A0305D00EE040228DF80420012208E00E
:102CE0005CEA010206D030228DF804208DF8050040
:102CF00002229046009B83F0080353EA0A030AD19C
:102D00005CEA010201D1620705D530228DF804206A
:102D10004FF001087F1E582804D034A003900EA85D
:102D200002900DE036A0F9E753466046009AFDF7A1
:102D3000EBFA84460398825C0298401E029002706F
:102D40005CEA0100F0D1029806A9081A00F1200AF5
:102D5000600702D524F4803400E00127574502DDE6
:102D6000A7EB0A0000E0002000EB0A0100900598A4
:102D70004144401A0590E00306D45B462146179A69
:102D8000059800F0B3F90544002706E001A85A466B
:102D9000C05D179990476D1C7F1C4745F6DBE0032B
:102DA0000CD55B462146179A059800F09FF905441B
:102DB00004E030205A46179990476D1C0099481E30
:102DC00000900029F5DC08E0029802995A46007844
:102DD000491C0291179990476D1CBAF10001AAF1A4
:102DE000010AF1DC65E100000928010030313233CD
:102DF0003435363738396162636465660000000037
:102E00003031323334353637383941424344454620
:102E10000000000000F058F90544761C30780028C6
:102E20007FF4ECAD19B02846BDE8F08F620700D4FE
:102E3000062709F1070222F0070CFCE80223E1460D
:102E400003F000485FEA080C02D00FF2702C0DE08E
:102E50005FEA045C02D50FF2682C07E05FEAC47CED
:102E600002D00FF2602C01E0AFF2700C4FF0FF388F
:102E700023F00043CDF850C065280CD006DC45286F
:102E800009D046281DD047283DD13DE0662818D0FE
:102E900067287ED138E00021112F01DB112000E0EE
:102EA000781CCDE9000106A90EA8FFF7EDFCDDE9CD
:102EB0000F010E9A03910021009207F1010A04917B
:102EC0004DE04FF000400097CDE9011006A90EA893
:102ED000FFF7DAFCDDE90F0203920E9B1199002245
:102EE000DDF80CA00093049211B9791C00EB010AE3
:102EF000B7EB0A0004D4C0F1FF3007F1010A0490D7
:102F0000AAEB0700019044E0012F00DA012700211D
:102F1000112F01DD112000E03846CDE9000106A99E
:102F20000EA8FFF7B1FCDDE90F010E9A0391002115
:102F300004910092BA4621070CD40399514500DA56
:102F40008A46BAF1010F05DD009AAAF10101515C30
:102F5000302908D0B84202DA10F1040F06DA012154
:102F6000CDE9011015E0AAF10101E9E7002805DC2F
:102F7000049901440491AAEB000102E0411C51456F
:102F800000DD8A460499401A401C01904FF0004031
:102F90000290200704D40198504501DBCDF804804D
:102FA00000208DF84F0002980DF14F07B0F1004F4F
:102FB00025D02B200E9002984FF0020800280CDA42
:102FC000404202902D200E9007E00A210298FDF762
:102FD00085F93031029007F8011DB8F10001A8F120
:102FE0000108F2DC02980028EFD1791E0E980870D3
:102FF000307800F0200040F0450007F8020D12A8DC
:10300000C01B00F107081498007800B1012000EB04
:103010000A01019801EBE07105984144401A401EF5
:103020000590E00306D45B462146179A059800F008
:103030005DF805441498007818B15A4617999047DE
:103040006D1CE00324D55B462146179A059800F0D5
:103050004DF805441CE00498002807DBDDE9030176
:10306000884203DD0098405C179901E017993020F1
:103070005A469047049805F10105401C04900198B8
:10308000401E019004D12E205A46179990476D1C7E
:10309000BAF10001AAF1010ADDDC05E017F8010B25
:1030A0005A46179990476D1CB8F10001A8F1010824
:1030B000F4DC5B462146179A0598ABE62D0000002C
:1030C0002B000000200000002DE9F04104460025FF
:1030D0001E461746880404D405E039462020B04730
:1030E0006D1C641EF9D52846BDE8F0812DE9F0413C
:1030F000044600251E469046C80301D5302700E04F
:103100002027880404D505E041463846B0476D1CA9
:10311000641EF9D52846BDE8F081000013B54FF6CE
:10312000FF73012269460248FEF766FF00981CBD46
:10313000F80000202DE9F04F89B0FDF7FBFFFFF705
:10314000A5F8FDF7F9FBA54EDFF894A2DFF894820D
:103150003168A548B1FBFAF1C8F808100068A24927
:1031600040F00200086004200125CDE90405002498
:103170000320CDE9064004A99C48FDF7B9FE0122D1
:1031800004219A48FDF7CBFF99484FF0600B43F6B6
:10319000982184600461C0E900B1A0F58070954970
:1031A0000160414644F620698968C0E90394C0E99A
:1031B00001145F46FEF710FE8D490022A1F58070D4
:1031C000FEF7A2FD8A490422A1F58070FEF79CFD5E
:1031D000874843F68C411C3084600461C0E900716B
:1031E000E0388549016041468968C0E90394C0E937
:1031F0000114FEF7F1FD7E4900221C31A1F1E0002F
:10320000FEF782FD7A4904221C31A1F1E000FEF7AD
:103210007BFDFDF783FC31684046B1FBFAF1491EA6
:10322000816073484FF6FF778838744AC0E90374A9
:103230008460C0E90021FEF738FC18B10220FDF7D8
:10324000F7FBFEE76A48002210380146C0E9004556
:103250008460C4607838FEF7A3FB65490422103906
:10326000A1F17800FEF79CFB614908221039A1F119
:103270007800FEF795FB5E490C221039A1F1780029
:10328000FEF78EFB5A4804218838FEF759FC58484F
:1032900008218838FEF754FC55480C218838FEF781
:1032A0004FFC57493068574AB0FBF1F15048491E6E
:1032B0004C38C8F80810C0E903748460C0E90021E4
:1032C000FEF78AFD4A4802263830014684600461D0
:1032D000C0E900B600228438FEF716FD44480021FC
:1032E0004C38FEF7EBFD424847495430C0E9001422
:1032F00084600461846144628462C4620463C46063
:10330000C0E907454461FDF7D2FC40480B2107277F
:10331000C46080E8A2000146CC38FDF735FC3B488C
:103320003B498838C0E900148460046184614462C8
:103330008462C4620463C460C0E907454461FDF768
:10334000B6FC32480E211030C46080E8A20001466D
:103350009838FDF719FC2D482E494438C0E900146F
:1033600084600461846144628462C4620463C460F2
:10337000C0E907454461FDF79AFC24480F2120303D
:10338000C46080E8A20001466438FDF7FDFBCDE98A
:1033900000644FF47A75029400232A461EA1214846
:1033A000039400F063FFCDE90064029400232A46F1
:1033B0001DA11E48039400F059FFCDE9006402945A
:1033C00000232A461AA11C48039400F04FFF00F086
:1033D000BFFC09B00020BDE8F08F00002C000020E9
:1033E00080841E0044000020303802400004024067
:1033F000E4020020000401400008004000040040F6
:103400003600040000440140002201400404002072
:1034100000210140002001406F62737461636C659C
:1034200000000000510A000849520000C9200008AD
:103430006D6F746F720000001522000810B500B99E
:10344000012000F0C7FB002010BD000070B50B4C40
:10345000054620684560E0682168854205D2606BBA
:10346000BDE87040091D00F0FDBA206B091D00F099
:10347000F9FAE06A854200D2E56270BD8C00002056
:1034800010B500F013FB0C4C206880B90B4800F01D
:10349000DBFA0A48143000F0D7FA0848A06014306C
:1034A000E06000220C210A2000F006FD2060BDE84B
:1034B000104000F009BB0000C40000208805002077
:1034C00070B5124E124C1AE000F06CFC3068D0B1AE
:1034D00001F046F800F0EAFAF068C568281D00F02F
:1034E000A1FAA068401EA0606068401E606000F005
:1034F000EBFA286B00F0F2FA284600F0EFFA606869
:103500000028E1D170BD01F02BF8F8E7600500203C
:103510008C00002030B403680D46002B0CD0026CE8
:10352000C1688C18C46041688C4200D3C360C16814
:10353000284630BCFCF7AEBE30BC704770B51546AF
:10354000026C044682B1BDB1E068FCF7A3FEE168FD
:10355000206C091AE1602268914202D26168081A5F
:10356000E060022D15D019E02068B8B9606800F05D
:103570008BFB0020606011E0A068FCF78BFE216CE3
:10358000A0680844A0606168884207D32068A060F2
:1035900004E0A06B10B1A06B401EA063A06B401CA8
:1035A000A06370BD0F4810B520F007010E4800233E
:1035B0000D4AC0E9001346F2F83008440C3A0838C6
:1035C0001060440702D0FCF745FEFEE7436003604D
:1035D00046F2F033C1E90003506808385060D8065D
:1035E000906010BDB8050020E0000020044C00BF32
:1035F000FFF766FF20680128FAD900F0C3FAF7E761
:103600003404002030B5114900E011460A688242B6
:10361000FBD34B685C18844203D14068184448606F
:10362000084643681C18944209D1084C0C3C246895
:10363000A24209D052681A4442600A6812680260C5
:10364000814200D0086030BD0460F9E7E00000204E
:1036500070B5002441600B4D0061914206D8D11A2B
:103660008269914206D2011DE86807E09A4203D2BE
:10367000994201D3012403E0011DA86800F0F2F98A
:10368000204670BDC400002030B587B0254D3EE017
:10369000069C606910B1201D00F0C4F902A800F07A
:1036A00089F80246049830B1012830D002281FD092
:1036B00003282CD128E00598A1690346014420463F
:1036C000FFF7C6FF012822D1616A20468847E069DA
:1036D00001281CD1002000900598A1690023421800
:1036E0001946204600F0B2FF88B9FCF7B3FDFEE7AB
:1036F0000598A06128B1811813462046FFF7A8FF5E
:1037000005E0FCF7A7FDFEE7204600F0E7F90023FF
:103710001A4604A9286800F0F3FB0028B8D107B0C6
:1037200030BD0000C40000202DE9FC410F460546D5
:1037300000F038FB01A800F03DF80446019818B1EC
:1037400000F00EFFBDE8FC81194E37BBA54224D81E
:1037500000F006FFB0682746C068C468201D00F06E
:1037600061F9E069012811D1A0692B4641193A4657
:103770002046FFF76DFF012808D1002003460146CF
:1037800000902A46204600F061FF18B1616A204689
:103790008847D7E7FCF75EFDFEE7291B306800F09D
:1037A000FDF900F0DDFE0028CCD100F0EBF9C9E70F
:1037B000C400002070B5054600F02CFE064E0446FD
:1037C0007068844203D200F009F8012000E0002074
:1037D00028602046746070BDC4000020F8B5164D06
:1037E0001FE0C068C4680668201D00F01BF9616A0C
:1037F00020468847E069012813D1A0693044B042CF
:1038000006D924616060211DA86800F02BF908E04A
:1038100000200346014600903246204600F016FF85
:1038200038B1A86801680029DBD1E968C5E9021050
:10383000F8BDFCF70FFDFEE7C40000200448406817
:10384000401C02D0FCF706FDFEE7FCF703FDFEE797
:10385000E8000020074CA068016841B1C068002161
:10386000D0F80000FFF760FFFFF70EFFF3E701213C
:103870000020F7E7C400002070B5044600F016F9F8
:1038800004F124050AE0606A58B1284600F036FECB
:1038900008B100F0B9F9A06C401EA064A06C00282B
:1038A000F1DC4FF0FF36A66400F00EF900F0FEF8F0
:1038B00004F110050AE0206958B1284600F01EFE08
:1038C00008B100F0A1F9606C401E6064606C0028D3
:1038D000F1DC6664BDE8704000F0F6B82DE9F04117
:1038E0000546002700F05EFA1F4E306808B9FFF762
:1038F00059FEB068054232D18DB30835680704D04F
:1039000005F00700C0F10800054445B37068854222
:1039100025D815480C3001460C6801E020460C46BD
:103920006168A94202D221680029F7D131688C422E
:1039300015D007682168016060680837411B1029AD
:1039400004D9601941606560FFF75CFE60687168CA
:10395000091A7160B168084360600020206000F0BF
:10396000FFFD3846BDE8F081D400002010B5031FEC
:103970004FF080741C601B1F1960191F044B0B60F3
:1039800014390A60091F6FF0020244380A6010BD42
:103990003D38000870B500240126094DFEF722FCD1
:1039A0006E80FEF703FC02E0012000F013F9688846
:1039B0001E28F9D3FEF716FC641C212CEEDB70BD2B
:1039C0004400002070B500240126094DFEF70AFCD2
:1039D000AE80FEF7F9FB02E0012000F0FBF8A888BA
:1039E0001E28F9D3FEF7FEFB641C142CEEDB70BD21
:1039F0004400002070B500240126094DFEF7F2FBBB
:103A0000AE80FEF7E1FB02E0012000F0E3F8A888B9
:103A10001E28F9D3FEF7E6FB641C222CEEDB70BDFA
:103A200044000020D0E901128A60D0E901125160FF
:103A300001694A68824201D182684A6000220261BB
:103A40000868401E0860704700F108014FF0FF321F
:103A5000C0E90112C16001610021016070470021CD
:103A60000161704730B50B685A1C02D000F10802A2
:103A700002E0026904E02246546825689D42FAD9B2
:103A800053684B6099608A60516008610168491C05
:103A9000016030BD42684A6093688B6093685960EA
:103AA000916008610168491C0160704710B5FCF71E
:103AB000D1FB04484168491C4160BFF34F8FBFF3FD
:103AC0006F8F10BDE800002003494868401E486021
:103AD00001D1FCF7C6BB7047E800002070B5002894
:103AE0001DD00F4DA0F108046068A968084202D1FA
:103AF000FCF7B0FBFEE7226812B1FCF7ABFBFEE778
:103B00008843606000F04EF9606869680844686046
:103B10002046FFF777FDBDE8704000F021BD70BD85
:103B2000D400002006484FF47A710068B0FBF1F130
:103B30004FF0E020491E41610721016170470000FC
:103B40002C00002010B5FCF78FFB0C49102809D37E
:103B500000F1E02090F8F0030A78904202D2FCF7DE
:103B600079FBFEE706480068896800F4E060884257
:103B700002D9FCF76FFBFEE710BD0000E800002053
:103B80000CED00E004494FF080500860BFF34F8F08
:103B9000BFF36F8F7047000004ED00E070B50D4675
:103BA0000446FFF783FF616C0020491C00D160646C
:103BB000A16C491C00D1A064FFF786FFA06B20B95F
:103BC000294604F1240000F047F82046BDE8704083
:103BD000FFF752BE10B502000FD000F0E3F809481D
:103BE000C16800688C18001DFFF71CFF2046FFF716
:103BF0002DFC00F0B5FC002803D1BDE81040FFF714
:103C0000C1BF10BD8C00002001490120086270472F
:103C10008C00002070B50C4680B10D4D296818311C
:103C2000FFF720FF2868001DFFF7FCFE601C08D08E
:103C3000E8682044BDE87040FFF708BCFCF70AFBC9
:103C4000FEE72968BDE870400248091DFFF722BF62
:103C50008C0000207405002070B50D4670B1094C31
:103C600021681831FFF716FF2068001DFFF7DAFE04
:103C7000E0682844BDE87040FFF7E8BBFCF7EAFACB
:103C8000FEE700008C00002010B504001BD0E16CA2
:103C9000E06A884217D0201DFFF7C4FEE06CE062A6
:103CA000C0F10C000849A061E06A0A69904200D99D
:103CB0000861064900EB800001EB8000211DBDE892
:103CC0001040FFF7E7BE10BD8C0000203404002038
:103CD00070B5040029D0154DE06A2968C96A884288
:103CE00023D22868124EC06AC0F10C00A061E16ABC
:103CF000606901EB810106EB8101884212D1201D30
:103D0000FFF790FE2868C06AE0622969884200D9FE
:103D1000286100EB800006EB8000211DBDE87040AB
:103D2000FFF7B8BE2868C06AE06270BD8C00002052
:103D30003404002010B528B104494A6A0260C968F9
:103D4000416010BDFCF786FAFEE700008C00002001
:103D50001FB50024009401940294234680220DA1F3
:103D60000E48039400F082FA012803D100F04CFCC5
:103D7000012804D000280CD1FCF76CFAFEE7FCF710
:103D800069FA074801214161C460BDE81F4000F0A5
:103D90003FB81FBD49444C4500000000ED35000808
:103DA0008C00002002488169491C81617047000035
:103DB0008C000020144810B5816911B10121016205
:103DC00010BD00210162114903E0D2B10269521E07
:103DD0000261026902EB820251F82220002A026984
:103DE000F3D002EB820201EB820101F108034A6881
:103DF00052684A609A4201D152684A60D1680160B3
:103E000010BDFCF727FAFEE78C00002034040020E8
:103E10001CB51C4908780190FF20087008788DF8BF
:103E200000009DF80000184A00F0500010700720B4
:103E3000906005E09DF800305B008DF80030401E7A
:103E40009DF800301B06F5D4000200F4E06090609D
:103E5000019808700D48016841F470010160016823
:103E600041F070410160FFF75DFE00205060FCF7FB
:103E7000BFF90748016841F040410160FCF7AEF925
:103E800000201CBD00E400E0E800002020ED00E080
:103E900034EF00E010B5FCF7DDF900F0C7FA18B117
:103EA00004494FF080500860BDE810400020FCF746
:103EB000D8B9000004ED00E02DE9F04117460E46A8
:103EC000050019D05020FFF709FD040014D005FBB0
:103ED00006F0401CFFF702FD206050B1C4E90F5608
:103EE0000121204600F09BF884F84D702046BDE883
:103EF000F0812046FFF7F2FDFCF7ACF9FEE7000089
:103F00002DE9FF41002582B098460E46040002D0FC
:103F100000271EB107E0FCF79DF9FEE7206C10B109
:103F2000FCF798F9FEE7FFF7C1FDA06B50B33146EF
:103F30002046E568FFF7EEFAB8F1000F10D0E56013
:103F4000606A38B104F1240000F0D8FA10B100BF63
:103F5000FFF718FEFFF7B8FD012006B0BDE8F081BD
:103F6000A06B401EA063206810B900F03FFA6060AB
:103F700020690028EED004F1100000F0BFFA0128FB
:103F8000E6D0E7E7049808B11DB106E0FFF79CFD15
:103F90001DE06846FFF7CEFE0125FFF795FDFFF710
:103FA00001FFFFF783FD606C401C00D16764A06CCB
:103FB000401C00D1A764FFF787FD04A9684600F004
:103FC00029F930B12046FFF757FC00F0C9FA00206C
:103FD000C3E7FFF76BFDA06B38B1FFF775FD204617
:103FE000FFF74AFC00F0BCFA9DE7FFF76DFD206883
:103FF00030B9FFF75BFD6068FFF76AFEFFF764FD0D
:1040000004F124000499FFF705FE2046FFF734FC75
:1040100000F0A6FA002886D1FFF7B4FD83E770B55B
:104020000D46040023D0FFF741FDD4E90F2021689D
:1040300002FB001161600021A1632168A1600A46B2
:10404000D4E90F01401E00FB01214FF0FF30E16079
:104050006064A06404F1100065B1FFF7F5FC04F1A1
:104060002400FFF7F1FCFFF72FFD012070BDFCF7E6
:10407000F1F8FEE721690029F5D000F03FFA0128A8
:10408000F1D1FFF77FFDEEE72DE9FF41002682B079
:104090001D468846040003D0B8F1000F03D007E0A6
:1040A000FCF7D8F8FEE7206C10B1FCF7D3F8FEE778
:1040B0000027022D05D1E06B012802D0FCF7CAF8D9
:1040C000FEE7FFF7F3FCA06BE16B884205D3022DFE
:1040D00003D00498B0B1C6B11BE02A464146204641
:1040E000FFF72CFA606A38B104F1240000F006FAF8
:1040F000012801D1FFF746FDFFF7E6FC012006B0DD
:10410000BDE8F081FFF7E0FC1DE06846FFF712FE16
:104110000126FFF7D9FCFFF745FEFFF7C7FC606CEF
:10412000401C00D16764A06C401C00D1A764FFF75D
:10413000CBFC04A9684600F06DF830B12046FFF7CB
:104140009BFB00F00DFA0020D9E7FFF7AFFCA06B56
:10415000E16B884210D1FFF7B7FC04F1100004991D
:10416000FFF758FD2046FFF787FB00F0F9F900281C
:10417000A7D1FFF707FDA4E7FFF7A6FC2046FFF74E
:104180007BFB00F0EDF99CE72DE9F0411D4616465A
:104190000F46040001D01FB107E0FCF75BF8FEE713
:1041A000206C10B1FCF756F8FEE7022D05D1E06B4C
:1041B000012802D0FCF74EF8FEE7FFF7C3FCFCF73E
:1041C00049F88046A06BE16B884208D3022D06D0E7
:1041D00000244046FCF745F82046BDE8F0812A4619
:1041E00039462046FFF7AAF9A06C401C04D0A06C09
:1041F000401CA0640124ECE7606A0028FAD004F1B6
:10420000240000F07BF90028F4D0002EF2D0012029
:104210003060EFE770B50D46040019D0DDB1FFF74F
:1042200045FC114AD1682868431C0FD02368526AA4
:10423000934202D062688A4210D96268891A814228
:104240000CD2401A28602046FFF774FD002406E0D7
:10425000FCF700F8FEE7FBF7FDFFFEE70124FFF7A0
:1042600033FC204670BD00008C0000202DE9FF5F6C
:104270001546DDE90E68109F8A465FEA000B04D000
:104280000C2E05D3FBF7E6FFFEE7FBF7E3FFFEE7A7
:104290005020FFF723FB04001CD0A80081469FB1EB
:1042A0003846206398B1A5224946FCF705F86FF01F
:1042B0000301206B01EB8501084420F00707780714
:1042C0000BD0FBF7C7FFFEE7FFF708FBE9E7204647
:1042D000FFF704FC4FF0FF347EE0514635460020E6
:1042E00022180B5C82F834300A5C12B1401C102892
:1042F000F6D3002184F843100C2D00D30B25E56282
:10430000201DE564FFF7ABFB04F11800FFF7A7FBE6
:104310002461C5F10C016462A16159463846039AD3
:10432000FFF724FB2060B8F1000F01D0C8F800406F
:10433000FFF7BCFB2A4DA868401CA8602868DFF87E
:10434000A48010B1686938B32BE02C60A8680128FC
:1043500027D1002707EB870108EB8100FFF774FBEB
:104360007F1C0C2FF6D31F48F030FFF76DFB1E4863
:10437000FFF76AFB1C481430FFF766FB1A48283029
:10438000FFF762FB18483C30FFF75EFB1648143815
:1043900028631430686304E02868C06AB04200D81B
:1043A0002C60A86A401CA8626064E06A296988429F
:1043B00000D9286100EB800108EB8100211DFFF787
:1043C00069FB0124FFF780FB686928B12868C06A8F
:1043D000B04201D2FFF7D6FB04B02046BDE8F09F03
:1043E0008C000020340400203805002001480068BB
:1043F000704700008C0000200548416919B18069B0
:1044000018B102207047002070470120704700005B
:104410008C00002010B5FFF749FB0348C468FFF784
:1044200053FB204610BD00008C0000202DE9F04712
:10443000304C0026A06940B1E069401CE061206A70
:1044400000B101263046BDE8F087E068401CE0601E
:10445000E7684FF0FF39A7B9206B006810B1FBF790
:10446000F9FEFEE7206B616B21636063606A401CAC
:104470006062206B0068E8B1206BC068C06840686B
:10448000E062E06ADFF87080874209D3206B006841
:1044900090B1206BC068C568686887420ED2E06240
:1044A0002068C06A00EB800158F821000128C6D9B5
:1044B0000126C4E74846E3E74846F0E7281DFFF732
:1044C000B1FAA86A18B105F11800FFF7ABFAE86A6B
:1044D0002169884200D9206100EB800108EB81004E
:1044E000291DFFF7D7FAE86A2168C96A8842CDD347
:1044F0000126CBE78C0000203404002070B5C06892
:10450000C46854B104F118000646FFF78BFA114D48
:10451000A86928B13146104810E0FBF79BFEFEE782
:10452000201DFFF77FFAE06A2969884200D92861D7
:104530000A4900EB800001EB8000211DFFF7AAFA79
:10454000E06A2968C96A884202D30120286270BDE6
:10455000002070BD8C0000204C0500203404002099
:104560002DE9F047264C0027A06938B1FFF79EFAE5
:10457000A069401EA061A06918B13BE0FBF76AFE8C
:10458000FEE7A1681F4E0120A1B3A6F58C798046F5
:104590003068E0B1F068C56805F11800FFF742FA2D
:1045A000281DFFF73FFAE86A2169884200D9206197
:1045B00000EB800109EB8100291DFFF76BFAE86A27
:1045C0002168C96A8842E3D3C4F82080E0E7E06943
:1045D00050B14546E06938B1FFF728FF00B12562C8
:1045E000E069401EE061F5E7206A012802D1012759
:1045F000FFF7C8FAFFF768FA3846BDE8F087000011
:104600008C0000204C0500201FB5FEF739FF0B4839
:10461000006870B100200A21CDE900100290034625
:1046200003904FF4807206A10748FFF71FFE002891
:1046300002D1FBF70FFEFEE704B010BDC40000205E
:10464000546D72205376630055380008FEB5104C47
:104650001D46034627680020089E002F08D08DE8DD
:104660000E0035B100232A4669463846FFF78CFD17
:10467000FEBDFFF7C1FE01284FF0000305D0002268
:1046800069462068FFF700FDFEBD3246F8E70000EE
:10469000C4000020000400400008000207000800D9
:1046A00007000800000100020004000800000000EC
:1046B000010203040102030406070809DC4600089E
:1046C00000000020F800000068280008D447000817
:1046D000F8000020B86C00007828000800000000F6
:1046E000004800400014014000040240001802404D
:1046F0000004024000180240002002400020024056
:1047000000200240002002400024F40000000000CD
:104710000000000001020304060708090000000071
:104720000303000000000000000000000000000083
:104730000000000000000000000000000000000079
:104740000000000000000000000000000000000069
:104750000000000000000000000000000000000059
:104760000000000000000000000000000000000049
:104770000000000000000000000000000000000039
:104780000000000000000000000000000000000029
:1047900000000000FFFFFFFF00000000000000001D
:1047A0000000000000000000000000000000000009
:1047B00000000000F863000000000000000000009E
:1047C0000000000000000000AAAAAAAA0000000041
:0447D00000000000E5
:04000005080001AD41
:00000001FF
